{"contracts/MockProjectEmissionsOracle.sol":{"MockProjectEmissionsOracle":{"abi":[{"inputs":[],"stateMutability":"nonpayable","type":"constructor"},{"inputs":[{"internalType":"address","name":"source","type":"address"}],"name":"addTrustedSource","outputs":[],"stateMutability":"nonpayable","type":"function"},{"inputs":[],"name":"admin","outputs":[{"internalType":"address","name":"","type":"address"}],"stateMutability":"view","type":"function"},{"inputs":[{"internalType":"address","name":"","type":"address"}],"name":"energyProducedData","outputs":[{"internalType":"uint256","name":"","type":"uint256"}],"stateMutability":"view","type":"function"},{"inputs":[{"internalType":"address","name":"project","type":"address"}],"name":"getEnergyProduced","outputs":[{"internalType":"uint256","name":"","type":"uint256"}],"stateMutability":"view","type":"function"},{"inputs":[{"internalType":"address","name":"project","type":"address"}],"name":"getProjectEmissionsData","outputs":[{"internalType":"uint256","name":"","type":"uint256"}],"stateMutability":"view","type":"function"},{"inputs":[{"internalType":"address","name":"","type":"address"}],"name":"projectEmissionsData","outputs":[{"internalType":"uint256","name":"","type":"uint256"}],"stateMutability":"view","type":"function"},{"inputs":[{"internalType":"address","name":"project","type":"address"}],"name":"registerProject","outputs":[],"stateMutability":"nonpayable","type":"function"},{"inputs":[{"internalType":"address","name":"","type":"address"}],"name":"registeredProjects","outputs":[{"internalType":"bool","name":"","type":"bool"}],"stateMutability":"view","type":"function"},{"inputs":[{"internalType":"address","name":"source","type":"address"}],"name":"removeTrustedSource","outputs":[],"stateMutability":"nonpayable","type":"function"},{"inputs":[{"internalType":"address","name":"","type":"address"}],"name":"trustedSources","outputs":[{"internalType":"bool","name":"","type":"bool"}],"stateMutability":"view","type":"function"},{"inputs":[{"internalType":"address","name":"project","type":"address"},{"internalType":"uint256","name":"energyProduced","type":"uint256"},{"internalType":"uint256","name":"emissions","type":"uint256"}],"name":"updateProjectData","outputs":[],"stateMutability":"nonpayable","type":"function"}],"evm":{"bytecode":{"linkReferences":{},"object":"608060405234801561001057600080fd5b5061002b67f74b6802d28b043c60c01b61008a60201b60201c565b610045671c643c8a35580f6560c01b61008a60201b60201c565b336000806101000a81548173ffffffffffffffffffffffffffffffffffffffff021916908373ffffffffffffffffffffffffffffffffffffffff16021790555061008d565b50565b610fe48061009c6000396000f3fe608060405234801561001057600080fd5b50600436106100a95760003560e01c80639f244021116100715780639f24402114610176578063ae3f9c27146101a6578063c541cfa5146101c2578063e3d45a68146101f2578063e578227814610222578063f851a4401461023e576100a9565b806344e61f62146100ae5780634c31957f146100de578063511fb40f1461010e57806377a774001461012a5780637b61e1d314610146575b600080fd5b6100c860048036038101906100c39190610ccd565b61025c565b6040516100d59190610d13565b60405180910390f35b6100f860048036038101906100f39190610ccd565b6103bd565b6040516101059190610d49565b60405180910390f35b61012860048036038101906101239190610d90565b6103dd565b005b610144600480360381019061013f9190610ccd565b6106ae565b005b610160600480360381019061015b9190610ccd565b610731565b60405161016d9190610d13565b60405180910390f35b610190600480360381019061018b9190610ccd565b610749565b60405161019d9190610d49565b60405180910390f35b6101c060048036038101906101bb9190610ccd565b610769565b005b6101dc60048036038101906101d79190610ccd565b61091a565b6040516101e99190610d13565b60405180910390f35b61020c60048036038101906102079190610ccd565b610932565b6040516102199190610d13565b60405180910390f35b61023c60048036038101906102379190610ccd565b610a93565b005b610246610c43565b6040516102539190610df2565b60405180910390f35b600061027267d55dd58b3a15ffab60c01b610c67565b610286678df8c716c77909c060c01b610c67565b61029a67f2cc1dc254ed577d60c01b610c67565b6102ae67b04ef303408c031d60c01b610c67565b600260008373ffffffffffffffffffffffffffffffffffffffff1673ffffffffffffffffffffffffffffffffffffffff16815260200190815260200160002060009054906101000a900460ff1661033a576040517f08c379a000000000000000000000000000000000000000000000000000000000815260040161033190610e6a565b60405180910390fd5b61034e6760d9237d2785d49260c01b610c67565b61036267493237fce7c3d4d360c01b610c67565b61037667debccd161f41a87660c01b610c67565b600360008373ffffffffffffffffffffffffffffffffffffffff1673ffffffffffffffffffffffffffffffffffffffff168152602001908152602001600020549050919050565b60016020528060005260406000206000915054906101000a900460ff1681565b6103f1671773ccfa52da426c60c01b610c67565b6104056740dfc86fedf1e30a60c01b610c67565b61041967bbdc87be6813f0c260c01b610c67565b61042d679ba39c38c435e84c60c01b610c67565b610441670a09e9ab2faa3ae260c01b610c67565b600160003373ffffffffffffffffffffffffffffffffffffffff1673ffffffffffffffffffffffffffffffffffffffff16815260200190815260200160002060009054906101000a900460ff166104cd576040517f08c379a00000000000000000000000000000000000000000000000000000000081526004016104c490610efc565b60405180910390fd5b6104e167676fd45bd1c2faaf60c01b610c67565b6104f567829238f5618a4a8b60c01b610c67565b610509671615ca39e7e0367760c01b610c67565b61051d677a024657cbfff7c960c01b610c67565b61053167cfcf0e0ff197d93760c01b610c67565b610545679240d55a6679a87f60c01b610c67565b610559678aeb6b9ec5bac5bf60c01b610c67565b600260008473ffffffffffffffffffffffffffffffffffffffff1673ffffffffffffffffffffffffffffffffffffffff16815260200190815260200160002060009054906101000a900460ff166105e5576040517f08c379a00000000000000000000000000000000000000000000000000000000081526004016105dc90610e6a565b60405180910390fd5b6105f967fad782364f3fab5260c01b610c67565b61060d67d587b62251010fe060c01b610c67565b81600360008573ffffffffffffffffffffffffffffffffffffffff1673ffffffffffffffffffffffffffffffffffffffff1681526020019081526020016000208190555061066567f460edb53de3e68160c01b610c67565b80600460008573ffffffffffffffffffffffffffffffffffffffff1673ffffffffffffffffffffffffffffffffffffffff16815260200190815260200160002081905550505050565b6106c2671ee0da49ab947c1e60c01b610c67565b6106d6671dde52635e893eae60c01b610c67565b6001600260008373ffffffffffffffffffffffffffffffffffffffff1673ffffffffffffffffffffffffffffffffffffffff16815260200190815260200160002060006101000a81548160ff02191690831515021790555050565b60046020528060005260406000206000915090505481565b60026020528060005260406000206000915054906101000a900460ff1681565b61077d67ea0e11b7819b4f5460c01b610c67565b61079167c709039289c834d260c01b610c67565b6107a567f712291dea7ecd1160c01b610c67565b6107b9675815e988a88e456760c01b610c67565b6107cd6797c9c53f740380b060c01b610c67565b60008054906101000a900473ffffffffffffffffffffffffffffffffffffffff1673ffffffffffffffffffffffffffffffffffffffff163373ffffffffffffffffffffffffffffffffffffffff161461085b576040517f08c379a000000000000000000000000000000000000000000000000000000000815260040161085290610f8e565b60405180910390fd5b61086f67ce7e3c0390fa9d0b60c01b610c67565b610883679272c89c3764cad060c01b610c67565b610897673cd43240d79e8abf60c01b610c67565b6108ab671eb14b8c170c833260c01b610c67565b6108bf67ce50d7ce760bc2aa60c01b610c67565b6000600160008373ffffffffffffffffffffffffffffffffffffffff1673ffffffffffffffffffffffffffffffffffffffff16815260200190815260200160002060006101000a81548160ff02191690831515021790555050565b60036020528060005260406000206000915090505481565b60006109486725583a58e93f9d6660c01b610c67565b61095c67fcf86b02cb448ea560c01b610c67565b6109706785c9e01ca37e772c60c01b610c67565b61098467b9c7c4259815ed5a60c01b610c67565b600260008373ffffffffffffffffffffffffffffffffffffffff1673ffffffffffffffffffffffffffffffffffffffff16815260200190815260200160002060009054906101000a900460ff16610a10576040517f08c379a0000000000000000000000000000000000000000000000000000000008152600401610a0790610e6a565b60405180910390fd5b610a2467c1df1b1adc4eb35560c01b610c67565b610a3867729fd24c21d7c3e060c01b610c67565b610a4c67d9254c5b7ebd127160c01b610c67565b600460008373ffffffffffffffffffffffffffffffffffffffff1673ffffffffffffffffffffffffffffffffffffffff168152602001908152602001600020549050919050565b610aa767bbb5d2e7d07b679d60c01b610c67565b610abb67c709039289c834d260c01b610c67565b610acf67f712291dea7ecd1160c01b610c67565b610ae3675815e988a88e456760c01b610c67565b610af76797c9c53f740380b060c01b610c67565b60008054906101000a900473ffffffffffffffffffffffffffffffffffffffff1673ffffffffffffffffffffffffffffffffffffffff163373ffffffffffffffffffffffffffffffffffffffff1614610b85576040517f08c379a0000000000000000000000000000000000000000000000000000000008152600401610b7c90610f8e565b60405180910390fd5b610b9967ce7e3c0390fa9d0b60c01b610c67565b610bad679272c89c3764cad060c01b610c67565b610bc167e997194e9e37eba860c01b610c67565b610bd567ceb1775cbc32ca9760c01b610c67565b610be967d12c040cc3aa63ae60c01b610c67565b60018060008373ffffffffffffffffffffffffffffffffffffffff1673ffffffffffffffffffffffffffffffffffffffff16815260200190815260200160002060006101000a81548160ff02191690831515021790555050565b60008054906101000a900473ffffffffffffffffffffffffffffffffffffffff1681565b50565b600080fd5b600073ffffffffffffffffffffffffffffffffffffffff82169050919050565b6000610c9a82610c6f565b9050919050565b610caa81610c8f565b8114610cb557600080fd5b50565b600081359050610cc781610ca1565b92915050565b600060208284031215610ce357610ce2610c6a565b5b6000610cf184828501610cb8565b91505092915050565b6000819050919050565b610d0d81610cfa565b82525050565b6000602082019050610d286000830184610d04565b92915050565b60008115159050919050565b610d4381610d2e565b82525050565b6000602082019050610d5e6000830184610d3a565b92915050565b610d6d81610cfa565b8114610d7857600080fd5b50565b600081359050610d8a81610d64565b92915050565b600080600060608486031215610da957610da8610c6a565b5b6000610db786828701610cb8565b9350506020610dc886828701610d7b565b9250506040610dd986828701610d7b565b9150509250925092565b610dec81610c8f565b82525050565b6000602082019050610e076000830184610de3565b92915050565b600082825260208201905092915050565b7f50726f6a656374206e6f74207265676973746572656400000000000000000000600082015250565b6000610e54601683610e0d565b9150610e5f82610e1e565b602082019050919050565b60006020820190508181036000830152610e8381610e47565b9050919050565b7f4f6e6c79207472757374656420736f75726365732063616e2063616c6c20746860008201527f69732066756e6374696f6e000000000000000000000000000000000000000000602082015250565b6000610ee6602b83610e0d565b9150610ef182610e8a565b604082019050919050565b60006020820190508181036000830152610f1581610ed9565b9050919050565b7f4f6e6c792061646d696e2063616e2063616c6c20746869732066756e6374696f60008201527f6e00000000000000000000000000000000000000000000000000000000000000602082015250565b6000610f78602183610e0d565b9150610f8382610f1c565b604082019050919050565b60006020820190508181036000830152610fa781610f6b565b905091905056fea264697066735822122040c40458a02f508f88e86da37dd25da5dcb664b73057753bab6639c84960cffe64736f6c63430008140033","opcodes":"PUSH1 0x80 PUSH1 0x40 MSTORE CALLVALUE DUP1 ISZERO PUSH2 0x10 JUMPI PUSH1 0x0 DUP1 REVERT JUMPDEST POP PUSH2 0x2B PUSH8 0xF74B6802D28B043C PUSH1 0xC0 SHL PUSH2 0x8A PUSH1 0x20 SHL PUSH1 0x20 SHR JUMP JUMPDEST PUSH2 0x45 PUSH8 0x1C643C8A35580F65 PUSH1 0xC0 SHL PUSH2 0x8A PUSH1 0x20 SHL PUSH1 0x20 SHR JUMP JUMPDEST CALLER PUSH1 0x0 DUP1 PUSH2 0x100 EXP DUP2 SLOAD DUP2 PUSH20 0xFFFFFFFFFFFFFFFFFFFFFFFFFFFFFFFFFFFFFFFF MUL NOT AND SWAP1 DUP4 PUSH20 0xFFFFFFFFFFFFFFFFFFFFFFFFFFFFFFFFFFFFFFFF AND MUL OR SWAP1 SSTORE POP PUSH2 0x8D JUMP JUMPDEST POP JUMP JUMPDEST PUSH2 0xFE4 DUP1 PUSH2 0x9C PUSH1 0x0 CODECOPY PUSH1 0x0 RETURN INVALID PUSH1 0x80 PUSH1 0x40 MSTORE CALLVALUE DUP1 ISZERO PUSH2 0x10 JUMPI PUSH1 0x0 DUP1 REVERT JUMPDEST POP PUSH1 0x4 CALLDATASIZE LT PUSH2 0xA9 JUMPI PUSH1 0x0 CALLDATALOAD PUSH1 0xE0 SHR DUP1 PUSH4 0x9F244021 GT PUSH2 0x71 JUMPI DUP1 PUSH4 0x9F244021 EQ PUSH2 0x176 JUMPI DUP1 PUSH4 0xAE3F9C27 EQ PUSH2 0x1A6 JUMPI DUP1 PUSH4 0xC541CFA5 EQ PUSH2 0x1C2 JUMPI DUP1 PUSH4 0xE3D45A68 EQ PUSH2 0x1F2 JUMPI DUP1 PUSH4 0xE5782278 EQ PUSH2 0x222 JUMPI DUP1 PUSH4 0xF851A440 EQ PUSH2 0x23E JUMPI PUSH2 0xA9 JUMP JUMPDEST DUP1 PUSH4 0x44E61F62 EQ PUSH2 0xAE JUMPI DUP1 PUSH4 0x4C31957F EQ PUSH2 0xDE JUMPI DUP1 PUSH4 0x511FB40F EQ PUSH2 0x10E JUMPI DUP1 PUSH4 0x77A77400 EQ PUSH2 0x12A JUMPI DUP1 PUSH4 0x7B61E1D3 EQ PUSH2 0x146 JUMPI JUMPDEST PUSH1 0x0 DUP1 REVERT JUMPDEST PUSH2 0xC8 PUSH1 0x4 DUP1 CALLDATASIZE SUB DUP2 ADD SWAP1 PUSH2 0xC3 SWAP2 SWAP1 PUSH2 0xCCD JUMP JUMPDEST PUSH2 0x25C JUMP JUMPDEST PUSH1 0x40 MLOAD PUSH2 0xD5 SWAP2 SWAP1 PUSH2 0xD13 JUMP JUMPDEST PUSH1 0x40 MLOAD DUP1 SWAP2 SUB SWAP1 RETURN JUMPDEST PUSH2 0xF8 PUSH1 0x4 DUP1 CALLDATASIZE SUB DUP2 ADD SWAP1 PUSH2 0xF3 SWAP2 SWAP1 PUSH2 0xCCD JUMP JUMPDEST PUSH2 0x3BD JUMP JUMPDEST PUSH1 0x40 MLOAD PUSH2 0x105 SWAP2 SWAP1 PUSH2 0xD49 JUMP JUMPDEST PUSH1 0x40 MLOAD DUP1 SWAP2 SUB SWAP1 RETURN JUMPDEST PUSH2 0x128 PUSH1 0x4 DUP1 CALLDATASIZE SUB DUP2 ADD SWAP1 PUSH2 0x123 SWAP2 SWAP1 PUSH2 0xD90 JUMP JUMPDEST PUSH2 0x3DD JUMP JUMPDEST STOP JUMPDEST PUSH2 0x144 PUSH1 0x4 DUP1 CALLDATASIZE SUB DUP2 ADD SWAP1 PUSH2 0x13F SWAP2 SWAP1 PUSH2 0xCCD JUMP JUMPDEST PUSH2 0x6AE JUMP JUMPDEST STOP JUMPDEST PUSH2 0x160 PUSH1 0x4 DUP1 CALLDATASIZE SUB DUP2 ADD SWAP1 PUSH2 0x15B SWAP2 SWAP1 PUSH2 0xCCD JUMP JUMPDEST PUSH2 0x731 JUMP JUMPDEST PUSH1 0x40 MLOAD PUSH2 0x16D SWAP2 SWAP1 PUSH2 0xD13 JUMP JUMPDEST PUSH1 0x40 MLOAD DUP1 SWAP2 SUB SWAP1 RETURN JUMPDEST PUSH2 0x190 PUSH1 0x4 DUP1 CALLDATASIZE SUB DUP2 ADD SWAP1 PUSH2 0x18B SWAP2 SWAP1 PUSH2 0xCCD JUMP JUMPDEST PUSH2 0x749 JUMP JUMPDEST PUSH1 0x40 MLOAD PUSH2 0x19D SWAP2 SWAP1 PUSH2 0xD49 JUMP JUMPDEST PUSH1 0x40 MLOAD DUP1 SWAP2 SUB SWAP1 RETURN JUMPDEST PUSH2 0x1C0 PUSH1 0x4 DUP1 CALLDATASIZE SUB DUP2 ADD SWAP1 PUSH2 0x1BB SWAP2 SWAP1 PUSH2 0xCCD JUMP JUMPDEST PUSH2 0x769 JUMP JUMPDEST STOP JUMPDEST PUSH2 0x1DC PUSH1 0x4 DUP1 CALLDATASIZE SUB DUP2 ADD SWAP1 PUSH2 0x1D7 SWAP2 SWAP1 PUSH2 0xCCD JUMP JUMPDEST PUSH2 0x91A JUMP JUMPDEST PUSH1 0x40 MLOAD PUSH2 0x1E9 SWAP2 SWAP1 PUSH2 0xD13 JUMP JUMPDEST PUSH1 0x40 MLOAD DUP1 SWAP2 SUB SWAP1 RETURN JUMPDEST PUSH2 0x20C PUSH1 0x4 DUP1 CALLDATASIZE SUB DUP2 ADD SWAP1 PUSH2 0x207 SWAP2 SWAP1 PUSH2 0xCCD JUMP JUMPDEST PUSH2 0x932 JUMP JUMPDEST PUSH1 0x40 MLOAD PUSH2 0x219 SWAP2 SWAP1 PUSH2 0xD13 JUMP JUMPDEST PUSH1 0x40 MLOAD DUP1 SWAP2 SUB SWAP1 RETURN JUMPDEST PUSH2 0x23C PUSH1 0x4 DUP1 CALLDATASIZE SUB DUP2 ADD SWAP1 PUSH2 0x237 SWAP2 SWAP1 PUSH2 0xCCD JUMP JUMPDEST PUSH2 0xA93 JUMP JUMPDEST STOP JUMPDEST PUSH2 0x246 PUSH2 0xC43 JUMP JUMPDEST PUSH1 0x40 MLOAD PUSH2 0x253 SWAP2 SWAP1 PUSH2 0xDF2 JUMP JUMPDEST PUSH1 0x40 MLOAD DUP1 SWAP2 SUB SWAP1 RETURN JUMPDEST PUSH1 0x0 PUSH2 0x272 PUSH8 0xD55DD58B3A15FFAB PUSH1 0xC0 SHL PUSH2 0xC67 JUMP JUMPDEST PUSH2 0x286 PUSH8 0x8DF8C716C77909C0 PUSH1 0xC0 SHL PUSH2 0xC67 JUMP JUMPDEST PUSH2 0x29A PUSH8 0xF2CC1DC254ED577D PUSH1 0xC0 SHL PUSH2 0xC67 JUMP JUMPDEST PUSH2 0x2AE PUSH8 0xB04EF303408C031D PUSH1 0xC0 SHL PUSH2 0xC67 JUMP JUMPDEST PUSH1 0x2 PUSH1 0x0 DUP4 PUSH20 0xFFFFFFFFFFFFFFFFFFFFFFFFFFFFFFFFFFFFFFFF AND PUSH20 0xFFFFFFFFFFFFFFFFFFFFFFFFFFFFFFFFFFFFFFFF AND DUP2 MSTORE PUSH1 0x20 ADD SWAP1 DUP2 MSTORE PUSH1 0x20 ADD PUSH1 0x0 KECCAK256 PUSH1 0x0 SWAP1 SLOAD SWAP1 PUSH2 0x100 EXP SWAP1 DIV PUSH1 0xFF AND PUSH2 0x33A JUMPI PUSH1 0x40 MLOAD PUSH32 0x8C379A000000000000000000000000000000000000000000000000000000000 DUP2 MSTORE PUSH1 0x4 ADD PUSH2 0x331 SWAP1 PUSH2 0xE6A JUMP JUMPDEST PUSH1 0x40 MLOAD DUP1 SWAP2 SUB SWAP1 REVERT JUMPDEST PUSH2 0x34E PUSH8 0x60D9237D2785D492 PUSH1 0xC0 SHL PUSH2 0xC67 JUMP JUMPDEST PUSH2 0x362 PUSH8 0x493237FCE7C3D4D3 PUSH1 0xC0 SHL PUSH2 0xC67 JUMP JUMPDEST PUSH2 0x376 PUSH8 0xDEBCCD161F41A876 PUSH1 0xC0 SHL PUSH2 0xC67 JUMP JUMPDEST PUSH1 0x3 PUSH1 0x0 DUP4 PUSH20 0xFFFFFFFFFFFFFFFFFFFFFFFFFFFFFFFFFFFFFFFF AND PUSH20 0xFFFFFFFFFFFFFFFFFFFFFFFFFFFFFFFFFFFFFFFF AND DUP2 MSTORE PUSH1 0x20 ADD SWAP1 DUP2 MSTORE PUSH1 0x20 ADD PUSH1 0x0 KECCAK256 SLOAD SWAP1 POP SWAP2 SWAP1 POP JUMP JUMPDEST PUSH1 0x1 PUSH1 0x20 MSTORE DUP1 PUSH1 0x0 MSTORE PUSH1 0x40 PUSH1 0x0 KECCAK256 PUSH1 0x0 SWAP2 POP SLOAD SWAP1 PUSH2 0x100 EXP SWAP1 DIV PUSH1 0xFF AND DUP2 JUMP JUMPDEST PUSH2 0x3F1 PUSH8 0x1773CCFA52DA426C PUSH1 0xC0 SHL PUSH2 0xC67 JUMP JUMPDEST PUSH2 0x405 PUSH8 0x40DFC86FEDF1E30A PUSH1 0xC0 SHL PUSH2 0xC67 JUMP JUMPDEST PUSH2 0x419 PUSH8 0xBBDC87BE6813F0C2 PUSH1 0xC0 SHL PUSH2 0xC67 JUMP JUMPDEST PUSH2 0x42D PUSH8 0x9BA39C38C435E84C PUSH1 0xC0 SHL PUSH2 0xC67 JUMP JUMPDEST PUSH2 0x441 PUSH8 0xA09E9AB2FAA3AE2 PUSH1 0xC0 SHL PUSH2 0xC67 JUMP JUMPDEST PUSH1 0x1 PUSH1 0x0 CALLER PUSH20 0xFFFFFFFFFFFFFFFFFFFFFFFFFFFFFFFFFFFFFFFF AND PUSH20 0xFFFFFFFFFFFFFFFFFFFFFFFFFFFFFFFFFFFFFFFF AND DUP2 MSTORE PUSH1 0x20 ADD SWAP1 DUP2 MSTORE PUSH1 0x20 ADD PUSH1 0x0 KECCAK256 PUSH1 0x0 SWAP1 SLOAD SWAP1 PUSH2 0x100 EXP SWAP1 DIV PUSH1 0xFF AND PUSH2 0x4CD JUMPI PUSH1 0x40 MLOAD PUSH32 0x8C379A000000000000000000000000000000000000000000000000000000000 DUP2 MSTORE PUSH1 0x4 ADD PUSH2 0x4C4 SWAP1 PUSH2 0xEFC JUMP JUMPDEST PUSH1 0x40 MLOAD DUP1 SWAP2 SUB SWAP1 REVERT JUMPDEST PUSH2 0x4E1 PUSH8 0x676FD45BD1C2FAAF PUSH1 0xC0 SHL PUSH2 0xC67 JUMP JUMPDEST PUSH2 0x4F5 PUSH8 0x829238F5618A4A8B PUSH1 0xC0 SHL PUSH2 0xC67 JUMP JUMPDEST PUSH2 0x509 PUSH8 0x1615CA39E7E03677 PUSH1 0xC0 SHL PUSH2 0xC67 JUMP JUMPDEST PUSH2 0x51D PUSH8 0x7A024657CBFFF7C9 PUSH1 0xC0 SHL PUSH2 0xC67 JUMP JUMPDEST PUSH2 0x531 PUSH8 0xCFCF0E0FF197D937 PUSH1 0xC0 SHL PUSH2 0xC67 JUMP JUMPDEST PUSH2 0x545 PUSH8 0x9240D55A6679A87F PUSH1 0xC0 SHL PUSH2 0xC67 JUMP JUMPDEST PUSH2 0x559 PUSH8 0x8AEB6B9EC5BAC5BF PUSH1 0xC0 SHL PUSH2 0xC67 JUMP JUMPDEST PUSH1 0x2 PUSH1 0x0 DUP5 PUSH20 0xFFFFFFFFFFFFFFFFFFFFFFFFFFFFFFFFFFFFFFFF AND PUSH20 0xFFFFFFFFFFFFFFFFFFFFFFFFFFFFFFFFFFFFFFFF AND DUP2 MSTORE PUSH1 0x20 ADD SWAP1 DUP2 MSTORE PUSH1 0x20 ADD PUSH1 0x0 KECCAK256 PUSH1 0x0 SWAP1 SLOAD SWAP1 PUSH2 0x100 EXP SWAP1 DIV PUSH1 0xFF AND PUSH2 0x5E5 JUMPI PUSH1 0x40 MLOAD PUSH32 0x8C379A000000000000000000000000000000000000000000000000000000000 DUP2 MSTORE PUSH1 0x4 ADD PUSH2 0x5DC SWAP1 PUSH2 0xE6A JUMP JUMPDEST PUSH1 0x40 MLOAD DUP1 SWAP2 SUB SWAP1 REVERT JUMPDEST PUSH2 0x5F9 PUSH8 0xFAD782364F3FAB52 PUSH1 0xC0 SHL PUSH2 0xC67 JUMP JUMPDEST PUSH2 0x60D PUSH8 0xD587B62251010FE0 PUSH1 0xC0 SHL PUSH2 0xC67 JUMP JUMPDEST DUP2 PUSH1 0x3 PUSH1 0x0 DUP6 PUSH20 0xFFFFFFFFFFFFFFFFFFFFFFFFFFFFFFFFFFFFFFFF AND PUSH20 0xFFFFFFFFFFFFFFFFFFFFFFFFFFFFFFFFFFFFFFFF AND DUP2 MSTORE PUSH1 0x20 ADD SWAP1 DUP2 MSTORE PUSH1 0x20 ADD PUSH1 0x0 KECCAK256 DUP2 SWAP1 SSTORE POP PUSH2 0x665 PUSH8 0xF460EDB53DE3E681 PUSH1 0xC0 SHL PUSH2 0xC67 JUMP JUMPDEST DUP1 PUSH1 0x4 PUSH1 0x0 DUP6 PUSH20 0xFFFFFFFFFFFFFFFFFFFFFFFFFFFFFFFFFFFFFFFF AND PUSH20 0xFFFFFFFFFFFFFFFFFFFFFFFFFFFFFFFFFFFFFFFF AND DUP2 MSTORE PUSH1 0x20 ADD SWAP1 DUP2 MSTORE PUSH1 0x20 ADD PUSH1 0x0 KECCAK256 DUP2 SWAP1 SSTORE POP POP POP POP JUMP JUMPDEST PUSH2 0x6C2 PUSH8 0x1EE0DA49AB947C1E PUSH1 0xC0 SHL PUSH2 0xC67 JUMP JUMPDEST PUSH2 0x6D6 PUSH8 0x1DDE52635E893EAE PUSH1 0xC0 SHL PUSH2 0xC67 JUMP JUMPDEST PUSH1 0x1 PUSH1 0x2 PUSH1 0x0 DUP4 PUSH20 0xFFFFFFFFFFFFFFFFFFFFFFFFFFFFFFFFFFFFFFFF AND PUSH20 0xFFFFFFFFFFFFFFFFFFFFFFFFFFFFFFFFFFFFFFFF AND DUP2 MSTORE PUSH1 0x20 ADD SWAP1 DUP2 MSTORE PUSH1 0x20 ADD PUSH1 0x0 KECCAK256 PUSH1 0x0 PUSH2 0x100 EXP DUP2 SLOAD DUP2 PUSH1 0xFF MUL NOT AND SWAP1 DUP4 ISZERO ISZERO MUL OR SWAP1 SSTORE POP POP JUMP JUMPDEST PUSH1 0x4 PUSH1 0x20 MSTORE DUP1 PUSH1 0x0 MSTORE PUSH1 0x40 PUSH1 0x0 KECCAK256 PUSH1 0x0 SWAP2 POP SWAP1 POP SLOAD DUP2 JUMP JUMPDEST PUSH1 0x2 PUSH1 0x20 MSTORE DUP1 PUSH1 0x0 MSTORE PUSH1 0x40 PUSH1 0x0 KECCAK256 PUSH1 0x0 SWAP2 POP SLOAD SWAP1 PUSH2 0x100 EXP SWAP1 DIV PUSH1 0xFF AND DUP2 JUMP JUMPDEST PUSH2 0x77D PUSH8 0xEA0E11B7819B4F54 PUSH1 0xC0 SHL PUSH2 0xC67 JUMP JUMPDEST PUSH2 0x791 PUSH8 0xC709039289C834D2 PUSH1 0xC0 SHL PUSH2 0xC67 JUMP JUMPDEST PUSH2 0x7A5 PUSH8 0xF712291DEA7ECD11 PUSH1 0xC0 SHL PUSH2 0xC67 JUMP JUMPDEST PUSH2 0x7B9 PUSH8 0x5815E988A88E4567 PUSH1 0xC0 SHL PUSH2 0xC67 JUMP JUMPDEST PUSH2 0x7CD PUSH8 0x97C9C53F740380B0 PUSH1 0xC0 SHL PUSH2 0xC67 JUMP JUMPDEST PUSH1 0x0 DUP1 SLOAD SWAP1 PUSH2 0x100 EXP SWAP1 DIV PUSH20 0xFFFFFFFFFFFFFFFFFFFFFFFFFFFFFFFFFFFFFFFF AND PUSH20 0xFFFFFFFFFFFFFFFFFFFFFFFFFFFFFFFFFFFFFFFF AND CALLER PUSH20 0xFFFFFFFFFFFFFFFFFFFFFFFFFFFFFFFFFFFFFFFF AND EQ PUSH2 0x85B JUMPI PUSH1 0x40 MLOAD PUSH32 0x8C379A000000000000000000000000000000000000000000000000000000000 DUP2 MSTORE PUSH1 0x4 ADD PUSH2 0x852 SWAP1 PUSH2 0xF8E JUMP JUMPDEST PUSH1 0x40 MLOAD DUP1 SWAP2 SUB SWAP1 REVERT JUMPDEST PUSH2 0x86F PUSH8 0xCE7E3C0390FA9D0B PUSH1 0xC0 SHL PUSH2 0xC67 JUMP JUMPDEST PUSH2 0x883 PUSH8 0x9272C89C3764CAD0 PUSH1 0xC0 SHL PUSH2 0xC67 JUMP JUMPDEST PUSH2 0x897 PUSH8 0x3CD43240D79E8ABF PUSH1 0xC0 SHL PUSH2 0xC67 JUMP JUMPDEST PUSH2 0x8AB PUSH8 0x1EB14B8C170C8332 PUSH1 0xC0 SHL PUSH2 0xC67 JUMP JUMPDEST PUSH2 0x8BF PUSH8 0xCE50D7CE760BC2AA PUSH1 0xC0 SHL PUSH2 0xC67 JUMP JUMPDEST PUSH1 0x0 PUSH1 0x1 PUSH1 0x0 DUP4 PUSH20 0xFFFFFFFFFFFFFFFFFFFFFFFFFFFFFFFFFFFFFFFF AND PUSH20 0xFFFFFFFFFFFFFFFFFFFFFFFFFFFFFFFFFFFFFFFF AND DUP2 MSTORE PUSH1 0x20 ADD SWAP1 DUP2 MSTORE PUSH1 0x20 ADD PUSH1 0x0 KECCAK256 PUSH1 0x0 PUSH2 0x100 EXP DUP2 SLOAD DUP2 PUSH1 0xFF MUL NOT AND SWAP1 DUP4 ISZERO ISZERO MUL OR SWAP1 SSTORE POP POP JUMP JUMPDEST PUSH1 0x3 PUSH1 0x20 MSTORE DUP1 PUSH1 0x0 MSTORE PUSH1 0x40 PUSH1 0x0 KECCAK256 PUSH1 0x0 SWAP2 POP SWAP1 POP SLOAD DUP2 JUMP JUMPDEST PUSH1 0x0 PUSH2 0x948 PUSH8 0x25583A58E93F9D66 PUSH1 0xC0 SHL PUSH2 0xC67 JUMP JUMPDEST PUSH2 0x95C PUSH8 0xFCF86B02CB448EA5 PUSH1 0xC0 SHL PUSH2 0xC67 JUMP JUMPDEST PUSH2 0x970 PUSH8 0x85C9E01CA37E772C PUSH1 0xC0 SHL PUSH2 0xC67 JUMP JUMPDEST PUSH2 0x984 PUSH8 0xB9C7C4259815ED5A PUSH1 0xC0 SHL PUSH2 0xC67 JUMP JUMPDEST PUSH1 0x2 PUSH1 0x0 DUP4 PUSH20 0xFFFFFFFFFFFFFFFFFFFFFFFFFFFFFFFFFFFFFFFF AND PUSH20 0xFFFFFFFFFFFFFFFFFFFFFFFFFFFFFFFFFFFFFFFF AND DUP2 MSTORE PUSH1 0x20 ADD SWAP1 DUP2 MSTORE PUSH1 0x20 ADD PUSH1 0x0 KECCAK256 PUSH1 0x0 SWAP1 SLOAD SWAP1 PUSH2 0x100 EXP SWAP1 DIV PUSH1 0xFF AND PUSH2 0xA10 JUMPI PUSH1 0x40 MLOAD PUSH32 0x8C379A000000000000000000000000000000000000000000000000000000000 DUP2 MSTORE PUSH1 0x4 ADD PUSH2 0xA07 SWAP1 PUSH2 0xE6A JUMP JUMPDEST PUSH1 0x40 MLOAD DUP1 SWAP2 SUB SWAP1 REVERT JUMPDEST PUSH2 0xA24 PUSH8 0xC1DF1B1ADC4EB355 PUSH1 0xC0 SHL PUSH2 0xC67 JUMP JUMPDEST PUSH2 0xA38 PUSH8 0x729FD24C21D7C3E0 PUSH1 0xC0 SHL PUSH2 0xC67 JUMP JUMPDEST PUSH2 0xA4C PUSH8 0xD9254C5B7EBD1271 PUSH1 0xC0 SHL PUSH2 0xC67 JUMP JUMPDEST PUSH1 0x4 PUSH1 0x0 DUP4 PUSH20 0xFFFFFFFFFFFFFFFFFFFFFFFFFFFFFFFFFFFFFFFF AND PUSH20 0xFFFFFFFFFFFFFFFFFFFFFFFFFFFFFFFFFFFFFFFF AND DUP2 MSTORE PUSH1 0x20 ADD SWAP1 DUP2 MSTORE PUSH1 0x20 ADD PUSH1 0x0 KECCAK256 SLOAD SWAP1 POP SWAP2 SWAP1 POP JUMP JUMPDEST PUSH2 0xAA7 PUSH8 0xBBB5D2E7D07B679D PUSH1 0xC0 SHL PUSH2 0xC67 JUMP JUMPDEST PUSH2 0xABB PUSH8 0xC709039289C834D2 PUSH1 0xC0 SHL PUSH2 0xC67 JUMP JUMPDEST PUSH2 0xACF PUSH8 0xF712291DEA7ECD11 PUSH1 0xC0 SHL PUSH2 0xC67 JUMP JUMPDEST PUSH2 0xAE3 PUSH8 0x5815E988A88E4567 PUSH1 0xC0 SHL PUSH2 0xC67 JUMP JUMPDEST PUSH2 0xAF7 PUSH8 0x97C9C53F740380B0 PUSH1 0xC0 SHL PUSH2 0xC67 JUMP JUMPDEST PUSH1 0x0 DUP1 SLOAD SWAP1 PUSH2 0x100 EXP SWAP1 DIV PUSH20 0xFFFFFFFFFFFFFFFFFFFFFFFFFFFFFFFFFFFFFFFF AND PUSH20 0xFFFFFFFFFFFFFFFFFFFFFFFFFFFFFFFFFFFFFFFF AND CALLER PUSH20 0xFFFFFFFFFFFFFFFFFFFFFFFFFFFFFFFFFFFFFFFF AND EQ PUSH2 0xB85 JUMPI PUSH1 0x40 MLOAD PUSH32 0x8C379A000000000000000000000000000000000000000000000000000000000 DUP2 MSTORE PUSH1 0x4 ADD PUSH2 0xB7C SWAP1 PUSH2 0xF8E JUMP JUMPDEST PUSH1 0x40 MLOAD DUP1 SWAP2 SUB SWAP1 REVERT JUMPDEST PUSH2 0xB99 PUSH8 0xCE7E3C0390FA9D0B PUSH1 0xC0 SHL PUSH2 0xC67 JUMP JUMPDEST PUSH2 0xBAD PUSH8 0x9272C89C3764CAD0 PUSH1 0xC0 SHL PUSH2 0xC67 JUMP JUMPDEST PUSH2 0xBC1 PUSH8 0xE997194E9E37EBA8 PUSH1 0xC0 SHL PUSH2 0xC67 JUMP JUMPDEST PUSH2 0xBD5 PUSH8 0xCEB1775CBC32CA97 PUSH1 0xC0 SHL PUSH2 0xC67 JUMP JUMPDEST PUSH2 0xBE9 PUSH8 0xD12C040CC3AA63AE PUSH1 0xC0 SHL PUSH2 0xC67 JUMP JUMPDEST PUSH1 0x1 DUP1 PUSH1 0x0 DUP4 PUSH20 0xFFFFFFFFFFFFFFFFFFFFFFFFFFFFFFFFFFFFFFFF AND PUSH20 0xFFFFFFFFFFFFFFFFFFFFFFFFFFFFFFFFFFFFFFFF AND DUP2 MSTORE PUSH1 0x20 ADD SWAP1 DUP2 MSTORE PUSH1 0x20 ADD PUSH1 0x0 KECCAK256 PUSH1 0x0 PUSH2 0x100 EXP DUP2 SLOAD DUP2 PUSH1 0xFF MUL NOT AND SWAP1 DUP4 ISZERO ISZERO MUL OR SWAP1 SSTORE POP POP JUMP JUMPDEST PUSH1 0x0 DUP1 SLOAD SWAP1 PUSH2 0x100 EXP SWAP1 DIV PUSH20 0xFFFFFFFFFFFFFFFFFFFFFFFFFFFFFFFFFFFFFFFF AND DUP2 JUMP JUMPDEST POP JUMP JUMPDEST PUSH1 0x0 DUP1 REVERT JUMPDEST PUSH1 0x0 PUSH20 0xFFFFFFFFFFFFFFFFFFFFFFFFFFFFFFFFFFFFFFFF DUP3 AND SWAP1 POP SWAP2 SWAP1 POP JUMP JUMPDEST PUSH1 0x0 PUSH2 0xC9A DUP3 PUSH2 0xC6F JUMP JUMPDEST SWAP1 POP SWAP2 SWAP1 POP JUMP JUMPDEST PUSH2 0xCAA DUP2 PUSH2 0xC8F JUMP JUMPDEST DUP2 EQ PUSH2 0xCB5 JUMPI PUSH1 0x0 DUP1 REVERT JUMPDEST POP JUMP JUMPDEST PUSH1 0x0 DUP2 CALLDATALOAD SWAP1 POP PUSH2 0xCC7 DUP2 PUSH2 0xCA1 JUMP JUMPDEST SWAP3 SWAP2 POP POP JUMP JUMPDEST PUSH1 0x0 PUSH1 0x20 DUP3 DUP5 SUB SLT ISZERO PUSH2 0xCE3 JUMPI PUSH2 0xCE2 PUSH2 0xC6A JUMP JUMPDEST JUMPDEST PUSH1 0x0 PUSH2 0xCF1 DUP5 DUP3 DUP6 ADD PUSH2 0xCB8 JUMP JUMPDEST SWAP2 POP POP SWAP3 SWAP2 POP POP JUMP JUMPDEST PUSH1 0x0 DUP2 SWAP1 POP SWAP2 SWAP1 POP JUMP JUMPDEST PUSH2 0xD0D DUP2 PUSH2 0xCFA JUMP JUMPDEST DUP3 MSTORE POP POP JUMP JUMPDEST PUSH1 0x0 PUSH1 0x20 DUP3 ADD SWAP1 POP PUSH2 0xD28 PUSH1 0x0 DUP4 ADD DUP5 PUSH2 0xD04 JUMP JUMPDEST SWAP3 SWAP2 POP POP JUMP JUMPDEST PUSH1 0x0 DUP2 ISZERO ISZERO SWAP1 POP SWAP2 SWAP1 POP JUMP JUMPDEST PUSH2 0xD43 DUP2 PUSH2 0xD2E JUMP JUMPDEST DUP3 MSTORE POP POP JUMP JUMPDEST PUSH1 0x0 PUSH1 0x20 DUP3 ADD SWAP1 POP PUSH2 0xD5E PUSH1 0x0 DUP4 ADD DUP5 PUSH2 0xD3A JUMP JUMPDEST SWAP3 SWAP2 POP POP JUMP JUMPDEST PUSH2 0xD6D DUP2 PUSH2 0xCFA JUMP JUMPDEST DUP2 EQ PUSH2 0xD78 JUMPI PUSH1 0x0 DUP1 REVERT JUMPDEST POP JUMP JUMPDEST PUSH1 0x0 DUP2 CALLDATALOAD SWAP1 POP PUSH2 0xD8A DUP2 PUSH2 0xD64 JUMP JUMPDEST SWAP3 SWAP2 POP POP JUMP JUMPDEST PUSH1 0x0 DUP1 PUSH1 0x0 PUSH1 0x60 DUP5 DUP7 SUB SLT ISZERO PUSH2 0xDA9 JUMPI PUSH2 0xDA8 PUSH2 0xC6A JUMP JUMPDEST JUMPDEST PUSH1 0x0 PUSH2 0xDB7 DUP7 DUP3 DUP8 ADD PUSH2 0xCB8 JUMP JUMPDEST SWAP4 POP POP PUSH1 0x20 PUSH2 0xDC8 DUP7 DUP3 DUP8 ADD PUSH2 0xD7B JUMP JUMPDEST SWAP3 POP POP PUSH1 0x40 PUSH2 0xDD9 DUP7 DUP3 DUP8 ADD PUSH2 0xD7B JUMP JUMPDEST SWAP2 POP POP SWAP3 POP SWAP3 POP SWAP3 JUMP JUMPDEST PUSH2 0xDEC DUP2 PUSH2 0xC8F JUMP JUMPDEST DUP3 MSTORE POP POP JUMP JUMPDEST PUSH1 0x0 PUSH1 0x20 DUP3 ADD SWAP1 POP PUSH2 0xE07 PUSH1 0x0 DUP4 ADD DUP5 PUSH2 0xDE3 JUMP JUMPDEST SWAP3 SWAP2 POP POP JUMP JUMPDEST PUSH1 0x0 DUP3 DUP3 MSTORE PUSH1 0x20 DUP3 ADD SWAP1 POP SWAP3 SWAP2 POP POP JUMP JUMPDEST PUSH32 0x50726F6A656374206E6F74207265676973746572656400000000000000000000 PUSH1 0x0 DUP3 ADD MSTORE POP JUMP JUMPDEST PUSH1 0x0 PUSH2 0xE54 PUSH1 0x16 DUP4 PUSH2 0xE0D JUMP JUMPDEST SWAP2 POP PUSH2 0xE5F DUP3 PUSH2 0xE1E JUMP JUMPDEST PUSH1 0x20 DUP3 ADD SWAP1 POP SWAP2 SWAP1 POP JUMP JUMPDEST PUSH1 0x0 PUSH1 0x20 DUP3 ADD SWAP1 POP DUP2 DUP2 SUB PUSH1 0x0 DUP4 ADD MSTORE PUSH2 0xE83 DUP2 PUSH2 0xE47 JUMP JUMPDEST SWAP1 POP SWAP2 SWAP1 POP JUMP JUMPDEST PUSH32 0x4F6E6C79207472757374656420736F75726365732063616E2063616C6C207468 PUSH1 0x0 DUP3 ADD MSTORE PUSH32 0x69732066756E6374696F6E000000000000000000000000000000000000000000 PUSH1 0x20 DUP3 ADD MSTORE POP JUMP JUMPDEST PUSH1 0x0 PUSH2 0xEE6 PUSH1 0x2B DUP4 PUSH2 0xE0D JUMP JUMPDEST SWAP2 POP PUSH2 0xEF1 DUP3 PUSH2 0xE8A JUMP JUMPDEST PUSH1 0x40 DUP3 ADD SWAP1 POP SWAP2 SWAP1 POP JUMP JUMPDEST PUSH1 0x0 PUSH1 0x20 DUP3 ADD SWAP1 POP DUP2 DUP2 SUB PUSH1 0x0 DUP4 ADD MSTORE PUSH2 0xF15 DUP2 PUSH2 0xED9 JUMP JUMPDEST SWAP1 POP SWAP2 SWAP1 POP JUMP JUMPDEST PUSH32 0x4F6E6C792061646D696E2063616E2063616C6C20746869732066756E6374696F PUSH1 0x0 DUP3 ADD MSTORE PUSH32 0x6E00000000000000000000000000000000000000000000000000000000000000 PUSH1 0x20 DUP3 ADD MSTORE POP JUMP JUMPDEST PUSH1 0x0 PUSH2 0xF78 PUSH1 0x21 DUP4 PUSH2 0xE0D JUMP JUMPDEST SWAP2 POP PUSH2 0xF83 DUP3 PUSH2 0xF1C JUMP JUMPDEST PUSH1 0x40 DUP3 ADD SWAP1 POP SWAP2 SWAP1 POP JUMP JUMPDEST PUSH1 0x0 PUSH1 0x20 DUP3 ADD SWAP1 POP DUP2 DUP2 SUB PUSH1 0x0 DUP4 ADD MSTORE PUSH2 0xFA7 DUP2 PUSH2 0xF6B JUMP JUMPDEST SWAP1 POP SWAP2 SWAP1 POP JUMP INVALID LOG2 PUSH5 0x6970667358 0x22 SLT KECCAK256 BLOCKHASH 0xC4 DIV PC LOG0 0x2F POP DUP16 DUP9 0xE8 PUSH14 0xA37DD25DA5DCB664B73057753BAB PUSH7 0x39C84960CFFE64 PUSH20 0x6F6C634300081400330000000000000000000000 "},"methodIdentifiers":{"addTrustedSource(address)":"e5782278","admin()":"f851a440","energyProducedData(address)":"c541cfa5","getEnergyProduced(address)":"44e61f62","getProjectEmissionsData(address)":"e3d45a68","projectEmissionsData(address)":"7b61e1d3","registerProject(address)":"77a77400","registeredProjects(address)":"9f244021","removeTrustedSource(address)":"ae3f9c27","trustedSources(address)":"4c31957f","updateProjectData(address,uint256,uint256)":"511fb40f"}}}}}