{"contracts/MockAverageEmissionsOracle.sol":{"MockAverageEmissionsOracle":{"abi":[{"inputs":[],"stateMutability":"nonpayable","type":"constructor"},{"inputs":[{"internalType":"address","name":"source","type":"address"}],"name":"addTrustedSource","outputs":[],"stateMutability":"nonpayable","type":"function"},{"inputs":[],"name":"admin","outputs":[{"internalType":"address","name":"","type":"address"}],"stateMutability":"view","type":"function"},{"inputs":[],"name":"averageEmissionsFactor","outputs":[{"internalType":"uint256","name":"","type":"uint256"}],"stateMutability":"view","type":"function"},{"inputs":[],"name":"getAverageEmissionsFactor","outputs":[{"internalType":"uint256","name":"","type":"uint256"}],"stateMutability":"view","type":"function"},{"inputs":[{"internalType":"address","name":"source","type":"address"}],"name":"removeTrustedSource","outputs":[],"stateMutability":"nonpayable","type":"function"},{"inputs":[{"internalType":"address","name":"","type":"address"}],"name":"trustedSources","outputs":[{"internalType":"bool","name":"","type":"bool"}],"stateMutability":"view","type":"function"},{"inputs":[{"internalType":"uint256","name":"emissionsFactor","type":"uint256"}],"name":"updateAverageEmissionsFactor","outputs":[],"stateMutability":"nonpayable","type":"function"}],"evm":{"bytecode":{"linkReferences":{},"object":"608060405234801561001057600080fd5b5061002b670e5b33b0acf5de3b60c01b61008a60201b60201c565b61004567c27a237d3f5e43ff60c01b61008a60201b60201c565b336000806101000a81548173ffffffffffffffffffffffffffffffffffffffff021916908373ffffffffffffffffffffffffffffffffffffffff16021790555061008d565b50565b61099a8061009c6000396000f3fe608060405234801561001057600080fd5b506004361061007d5760003560e01c8063ae3f9c271161005b578063ae3f9c27146100ec578063e578227814610108578063f851a44014610124578063fcb30e96146101425761007d565b80633b0dfd67146100825780634c31957f1461009e5780638de4126d146100ce575b600080fd5b61009c600480360381019061009791906106ed565b610160565b005b6100b860048036038101906100b39190610778565b6102be565b6040516100c591906107c0565b60405180910390f35b6100d66102de565b6040516100e391906107ea565b60405180910390f35b61010660048036038101906101019190610778565b610324565b005b610122600480360381019061011d9190610778565b6104d5565b005b61012c610685565b6040516101399190610814565b60405180910390f35b61014a6106a9565b60405161015791906107ea565b60405180910390f35b610174670d18dd0c9205a83260c01b6106af565b610188679dc1fa8e7160165e60c01b6106af565b61019c6730265cbf692b62c060c01b6106af565b6101b067f4992d9a22ef1a9560c01b6106af565b6101c4677aa676f0fcc8138360c01b6106af565b600160003373ffffffffffffffffffffffffffffffffffffffff1673ffffffffffffffffffffffffffffffffffffffff16815260200190815260200160002060009054906101000a900460ff16610250576040517f08c379a0000000000000000000000000000000000000000000000000000000008152600401610247906108b2565b60405180910390fd5b61026467165b3f48d07449e960c01b6106af565b610278676f29b455e4d8394d60c01b6106af565b61028c67bc49d3e710e597fc60c01b6106af565b6102a067c14cd36dcd3bf6bf60c01b6106af565b6102b467048a8c0f524fbe5660c01b6106af565b8060028190555050565b60016020528060005260406000206000915054906101000a900460ff1681565b60006102f467c26742fdc8d276fa60c01b6106af565b61030867faeecd814587f01a60c01b6106af565b61031c674ecb524a933feab260c01b6106af565b600254905090565b6103386743ff5eda69a2b88260c01b6106af565b61034c6751b3a7ae0bdbee1160c01b6106af565b610360677c21798ab3a2adbb60c01b6106af565b61037467cdda05cb58138a4760c01b6106af565b6103886762e5cbb12da132d260c01b6106af565b60008054906101000a900473ffffffffffffffffffffffffffffffffffffffff1673ffffffffffffffffffffffffffffffffffffffff163373ffffffffffffffffffffffffffffffffffffffff1614610416576040517f08c379a000000000000000000000000000000000000000000000000000000000815260040161040d90610944565b60405180910390fd5b61042a67af91d08d13e7aa3860c01b6106af565b61043e67e9f292c95af6ee7b60c01b6106af565b610452673ba1795e8afbdc3460c01b6106af565b6104666775302f92b68155f760c01b6106af565b61047a672d0cdb21320cf58b60c01b6106af565b6000600160008373ffffffffffffffffffffffffffffffffffffffff1673ffffffffffffffffffffffffffffffffffffffff16815260200190815260200160002060006101000a81548160ff02191690831515021790555050565b6104e9675fca7c0f28011cc960c01b6106af565b6104fd6751b3a7ae0bdbee1160c01b6106af565b610511677c21798ab3a2adbb60c01b6106af565b61052567cdda05cb58138a4760c01b6106af565b6105396762e5cbb12da132d260c01b6106af565b60008054906101000a900473ffffffffffffffffffffffffffffffffffffffff1673ffffffffffffffffffffffffffffffffffffffff163373ffffffffffffffffffffffffffffffffffffffff16146105c7576040517f08c379a00000000000000000000000000000000000000000000000000000000081526004016105be90610944565b60405180910390fd5b6105db67af91d08d13e7aa3860c01b6106af565b6105ef67e9f292c95af6ee7b60c01b6106af565b61060367d83a63fcc6d186bc60c01b6106af565b610617670e89c6f2b0ced58560c01b6106af565b61062b67ca92470016ebb49860c01b6106af565b60018060008373ffffffffffffffffffffffffffffffffffffffff1673ffffffffffffffffffffffffffffffffffffffff16815260200190815260200160002060006101000a81548160ff02191690831515021790555050565b60008054906101000a900473ffffffffffffffffffffffffffffffffffffffff1681565b60025481565b50565b600080fd5b6000819050919050565b6106ca816106b7565b81146106d557600080fd5b50565b6000813590506106e7816106c1565b92915050565b600060208284031215610703576107026106b2565b5b6000610711848285016106d8565b91505092915050565b600073ffffffffffffffffffffffffffffffffffffffff82169050919050565b60006107458261071a565b9050919050565b6107558161073a565b811461076057600080fd5b50565b6000813590506107728161074c565b92915050565b60006020828403121561078e5761078d6106b2565b5b600061079c84828501610763565b91505092915050565b60008115159050919050565b6107ba816107a5565b82525050565b60006020820190506107d560008301846107b1565b92915050565b6107e4816106b7565b82525050565b60006020820190506107ff60008301846107db565b92915050565b61080e8161073a565b82525050565b60006020820190506108296000830184610805565b92915050565b600082825260208201905092915050565b7f4f6e6c79207472757374656420736f75726365732063616e2063616c6c20746860008201527f69732066756e6374696f6e000000000000000000000000000000000000000000602082015250565b600061089c602b8361082f565b91506108a782610840565b604082019050919050565b600060208201905081810360008301526108cb8161088f565b9050919050565b7f4f6e6c792061646d696e2063616e2063616c6c20746869732066756e6374696f60008201527f6e00000000000000000000000000000000000000000000000000000000000000602082015250565b600061092e60218361082f565b9150610939826108d2565b604082019050919050565b6000602082019050818103600083015261095d81610921565b905091905056fea2646970667358221220f20e96f0e576fef227bc057cd024bfbbd58271074644b1eedd582e8cd02e4d2364736f6c63430008140033","opcodes":"PUSH1 0x80 PUSH1 0x40 MSTORE CALLVALUE DUP1 ISZERO PUSH2 0x10 JUMPI PUSH1 0x0 DUP1 REVERT JUMPDEST POP PUSH2 0x2B PUSH8 0xE5B33B0ACF5DE3B PUSH1 0xC0 SHL PUSH2 0x8A PUSH1 0x20 SHL PUSH1 0x20 SHR JUMP JUMPDEST PUSH2 0x45 PUSH8 0xC27A237D3F5E43FF PUSH1 0xC0 SHL PUSH2 0x8A PUSH1 0x20 SHL PUSH1 0x20 SHR JUMP JUMPDEST CALLER PUSH1 0x0 DUP1 PUSH2 0x100 EXP DUP2 SLOAD DUP2 PUSH20 0xFFFFFFFFFFFFFFFFFFFFFFFFFFFFFFFFFFFFFFFF MUL NOT AND SWAP1 DUP4 PUSH20 0xFFFFFFFFFFFFFFFFFFFFFFFFFFFFFFFFFFFFFFFF AND MUL OR SWAP1 SSTORE POP PUSH2 0x8D JUMP JUMPDEST POP JUMP JUMPDEST PUSH2 0x99A DUP1 PUSH2 0x9C PUSH1 0x0 CODECOPY PUSH1 0x0 RETURN INVALID PUSH1 0x80 PUSH1 0x40 MSTORE CALLVALUE DUP1 ISZERO PUSH2 0x10 JUMPI PUSH1 0x0 DUP1 REVERT JUMPDEST POP PUSH1 0x4 CALLDATASIZE LT PUSH2 0x7D JUMPI PUSH1 0x0 CALLDATALOAD PUSH1 0xE0 SHR DUP1 PUSH4 0xAE3F9C27 GT PUSH2 0x5B JUMPI DUP1 PUSH4 0xAE3F9C27 EQ PUSH2 0xEC JUMPI DUP1 PUSH4 0xE5782278 EQ PUSH2 0x108 JUMPI DUP1 PUSH4 0xF851A440 EQ PUSH2 0x124 JUMPI DUP1 PUSH4 0xFCB30E96 EQ PUSH2 0x142 JUMPI PUSH2 0x7D JUMP JUMPDEST DUP1 PUSH4 0x3B0DFD67 EQ PUSH2 0x82 JUMPI DUP1 PUSH4 0x4C31957F EQ PUSH2 0x9E JUMPI DUP1 PUSH4 0x8DE4126D EQ PUSH2 0xCE JUMPI JUMPDEST PUSH1 0x0 DUP1 REVERT JUMPDEST PUSH2 0x9C PUSH1 0x4 DUP1 CALLDATASIZE SUB DUP2 ADD SWAP1 PUSH2 0x97 SWAP2 SWAP1 PUSH2 0x6ED JUMP JUMPDEST PUSH2 0x160 JUMP JUMPDEST STOP JUMPDEST PUSH2 0xB8 PUSH1 0x4 DUP1 CALLDATASIZE SUB DUP2 ADD SWAP1 PUSH2 0xB3 SWAP2 SWAP1 PUSH2 0x778 JUMP JUMPDEST PUSH2 0x2BE JUMP JUMPDEST PUSH1 0x40 MLOAD PUSH2 0xC5 SWAP2 SWAP1 PUSH2 0x7C0 JUMP JUMPDEST PUSH1 0x40 MLOAD DUP1 SWAP2 SUB SWAP1 RETURN JUMPDEST PUSH2 0xD6 PUSH2 0x2DE JUMP JUMPDEST PUSH1 0x40 MLOAD PUSH2 0xE3 SWAP2 SWAP1 PUSH2 0x7EA JUMP JUMPDEST PUSH1 0x40 MLOAD DUP1 SWAP2 SUB SWAP1 RETURN JUMPDEST PUSH2 0x106 PUSH1 0x4 DUP1 CALLDATASIZE SUB DUP2 ADD SWAP1 PUSH2 0x101 SWAP2 SWAP1 PUSH2 0x778 JUMP JUMPDEST PUSH2 0x324 JUMP JUMPDEST STOP JUMPDEST PUSH2 0x122 PUSH1 0x4 DUP1 CALLDATASIZE SUB DUP2 ADD SWAP1 PUSH2 0x11D SWAP2 SWAP1 PUSH2 0x778 JUMP JUMPDEST PUSH2 0x4D5 JUMP JUMPDEST STOP JUMPDEST PUSH2 0x12C PUSH2 0x685 JUMP JUMPDEST PUSH1 0x40 MLOAD PUSH2 0x139 SWAP2 SWAP1 PUSH2 0x814 JUMP JUMPDEST PUSH1 0x40 MLOAD DUP1 SWAP2 SUB SWAP1 RETURN JUMPDEST PUSH2 0x14A PUSH2 0x6A9 JUMP JUMPDEST PUSH1 0x40 MLOAD PUSH2 0x157 SWAP2 SWAP1 PUSH2 0x7EA JUMP JUMPDEST PUSH1 0x40 MLOAD DUP1 SWAP2 SUB SWAP1 RETURN JUMPDEST PUSH2 0x174 PUSH8 0xD18DD0C9205A832 PUSH1 0xC0 SHL PUSH2 0x6AF JUMP JUMPDEST PUSH2 0x188 PUSH8 0x9DC1FA8E7160165E PUSH1 0xC0 SHL PUSH2 0x6AF JUMP JUMPDEST PUSH2 0x19C PUSH8 0x30265CBF692B62C0 PUSH1 0xC0 SHL PUSH2 0x6AF JUMP JUMPDEST PUSH2 0x1B0 PUSH8 0xF4992D9A22EF1A95 PUSH1 0xC0 SHL PUSH2 0x6AF JUMP JUMPDEST PUSH2 0x1C4 PUSH8 0x7AA676F0FCC81383 PUSH1 0xC0 SHL PUSH2 0x6AF JUMP JUMPDEST PUSH1 0x1 PUSH1 0x0 CALLER PUSH20 0xFFFFFFFFFFFFFFFFFFFFFFFFFFFFFFFFFFFFFFFF AND PUSH20 0xFFFFFFFFFFFFFFFFFFFFFFFFFFFFFFFFFFFFFFFF AND DUP2 MSTORE PUSH1 0x20 ADD SWAP1 DUP2 MSTORE PUSH1 0x20 ADD PUSH1 0x0 KECCAK256 PUSH1 0x0 SWAP1 SLOAD SWAP1 PUSH2 0x100 EXP SWAP1 DIV PUSH1 0xFF AND PUSH2 0x250 JUMPI PUSH1 0x40 MLOAD PUSH32 0x8C379A000000000000000000000000000000000000000000000000000000000 DUP2 MSTORE PUSH1 0x4 ADD PUSH2 0x247 SWAP1 PUSH2 0x8B2 JUMP JUMPDEST PUSH1 0x40 MLOAD DUP1 SWAP2 SUB SWAP1 REVERT JUMPDEST PUSH2 0x264 PUSH8 0x165B3F48D07449E9 PUSH1 0xC0 SHL PUSH2 0x6AF JUMP JUMPDEST PUSH2 0x278 PUSH8 0x6F29B455E4D8394D PUSH1 0xC0 SHL PUSH2 0x6AF JUMP JUMPDEST PUSH2 0x28C PUSH8 0xBC49D3E710E597FC PUSH1 0xC0 SHL PUSH2 0x6AF JUMP JUMPDEST PUSH2 0x2A0 PUSH8 0xC14CD36DCD3BF6BF PUSH1 0xC0 SHL PUSH2 0x6AF JUMP JUMPDEST PUSH2 0x2B4 PUSH8 0x48A8C0F524FBE56 PUSH1 0xC0 SHL PUSH2 0x6AF JUMP JUMPDEST DUP1 PUSH1 0x2 DUP2 SWAP1 SSTORE POP POP JUMP JUMPDEST PUSH1 0x1 PUSH1 0x20 MSTORE DUP1 PUSH1 0x0 MSTORE PUSH1 0x40 PUSH1 0x0 KECCAK256 PUSH1 0x0 SWAP2 POP SLOAD SWAP1 PUSH2 0x100 EXP SWAP1 DIV PUSH1 0xFF AND DUP2 JUMP JUMPDEST PUSH1 0x0 PUSH2 0x2F4 PUSH8 0xC26742FDC8D276FA PUSH1 0xC0 SHL PUSH2 0x6AF JUMP JUMPDEST PUSH2 0x308 PUSH8 0xFAEECD814587F01A PUSH1 0xC0 SHL PUSH2 0x6AF JUMP JUMPDEST PUSH2 0x31C PUSH8 0x4ECB524A933FEAB2 PUSH1 0xC0 SHL PUSH2 0x6AF JUMP JUMPDEST PUSH1 0x2 SLOAD SWAP1 POP SWAP1 JUMP JUMPDEST PUSH2 0x338 PUSH8 0x43FF5EDA69A2B882 PUSH1 0xC0 SHL PUSH2 0x6AF JUMP JUMPDEST PUSH2 0x34C PUSH8 0x51B3A7AE0BDBEE11 PUSH1 0xC0 SHL PUSH2 0x6AF JUMP JUMPDEST PUSH2 0x360 PUSH8 0x7C21798AB3A2ADBB PUSH1 0xC0 SHL PUSH2 0x6AF JUMP JUMPDEST PUSH2 0x374 PUSH8 0xCDDA05CB58138A47 PUSH1 0xC0 SHL PUSH2 0x6AF JUMP JUMPDEST PUSH2 0x388 PUSH8 0x62E5CBB12DA132D2 PUSH1 0xC0 SHL PUSH2 0x6AF JUMP JUMPDEST PUSH1 0x0 DUP1 SLOAD SWAP1 PUSH2 0x100 EXP SWAP1 DIV PUSH20 0xFFFFFFFFFFFFFFFFFFFFFFFFFFFFFFFFFFFFFFFF AND PUSH20 0xFFFFFFFFFFFFFFFFFFFFFFFFFFFFFFFFFFFFFFFF AND CALLER PUSH20 0xFFFFFFFFFFFFFFFFFFFFFFFFFFFFFFFFFFFFFFFF AND EQ PUSH2 0x416 JUMPI PUSH1 0x40 MLOAD PUSH32 0x8C379A000000000000000000000000000000000000000000000000000000000 DUP2 MSTORE PUSH1 0x4 ADD PUSH2 0x40D SWAP1 PUSH2 0x944 JUMP JUMPDEST PUSH1 0x40 MLOAD DUP1 SWAP2 SUB SWAP1 REVERT JUMPDEST PUSH2 0x42A PUSH8 0xAF91D08D13E7AA38 PUSH1 0xC0 SHL PUSH2 0x6AF JUMP JUMPDEST PUSH2 0x43E PUSH8 0xE9F292C95AF6EE7B PUSH1 0xC0 SHL PUSH2 0x6AF JUMP JUMPDEST PUSH2 0x452 PUSH8 0x3BA1795E8AFBDC34 PUSH1 0xC0 SHL PUSH2 0x6AF JUMP JUMPDEST PUSH2 0x466 PUSH8 0x75302F92B68155F7 PUSH1 0xC0 SHL PUSH2 0x6AF JUMP JUMPDEST PUSH2 0x47A PUSH8 0x2D0CDB21320CF58B PUSH1 0xC0 SHL PUSH2 0x6AF JUMP JUMPDEST PUSH1 0x0 PUSH1 0x1 PUSH1 0x0 DUP4 PUSH20 0xFFFFFFFFFFFFFFFFFFFFFFFFFFFFFFFFFFFFFFFF AND PUSH20 0xFFFFFFFFFFFFFFFFFFFFFFFFFFFFFFFFFFFFFFFF AND DUP2 MSTORE PUSH1 0x20 ADD SWAP1 DUP2 MSTORE PUSH1 0x20 ADD PUSH1 0x0 KECCAK256 PUSH1 0x0 PUSH2 0x100 EXP DUP2 SLOAD DUP2 PUSH1 0xFF MUL NOT AND SWAP1 DUP4 ISZERO ISZERO MUL OR SWAP1 SSTORE POP POP JUMP JUMPDEST PUSH2 0x4E9 PUSH8 0x5FCA7C0F28011CC9 PUSH1 0xC0 SHL PUSH2 0x6AF JUMP JUMPDEST PUSH2 0x4FD PUSH8 0x51B3A7AE0BDBEE11 PUSH1 0xC0 SHL PUSH2 0x6AF JUMP JUMPDEST PUSH2 0x511 PUSH8 0x7C21798AB3A2ADBB PUSH1 0xC0 SHL PUSH2 0x6AF JUMP JUMPDEST PUSH2 0x525 PUSH8 0xCDDA05CB58138A47 PUSH1 0xC0 SHL PUSH2 0x6AF JUMP JUMPDEST PUSH2 0x539 PUSH8 0x62E5CBB12DA132D2 PUSH1 0xC0 SHL PUSH2 0x6AF JUMP JUMPDEST PUSH1 0x0 DUP1 SLOAD SWAP1 PUSH2 0x100 EXP SWAP1 DIV PUSH20 0xFFFFFFFFFFFFFFFFFFFFFFFFFFFFFFFFFFFFFFFF AND PUSH20 0xFFFFFFFFFFFFFFFFFFFFFFFFFFFFFFFFFFFFFFFF AND CALLER PUSH20 0xFFFFFFFFFFFFFFFFFFFFFFFFFFFFFFFFFFFFFFFF AND EQ PUSH2 0x5C7 JUMPI PUSH1 0x40 MLOAD PUSH32 0x8C379A000000000000000000000000000000000000000000000000000000000 DUP2 MSTORE PUSH1 0x4 ADD PUSH2 0x5BE SWAP1 PUSH2 0x944 JUMP JUMPDEST PUSH1 0x40 MLOAD DUP1 SWAP2 SUB SWAP1 REVERT JUMPDEST PUSH2 0x5DB PUSH8 0xAF91D08D13E7AA38 PUSH1 0xC0 SHL PUSH2 0x6AF JUMP JUMPDEST PUSH2 0x5EF PUSH8 0xE9F292C95AF6EE7B PUSH1 0xC0 SHL PUSH2 0x6AF JUMP JUMPDEST PUSH2 0x603 PUSH8 0xD83A63FCC6D186BC PUSH1 0xC0 SHL PUSH2 0x6AF JUMP JUMPDEST PUSH2 0x617 PUSH8 0xE89C6F2B0CED585 PUSH1 0xC0 SHL PUSH2 0x6AF JUMP JUMPDEST PUSH2 0x62B PUSH8 0xCA92470016EBB498 PUSH1 0xC0 SHL PUSH2 0x6AF JUMP JUMPDEST PUSH1 0x1 DUP1 PUSH1 0x0 DUP4 PUSH20 0xFFFFFFFFFFFFFFFFFFFFFFFFFFFFFFFFFFFFFFFF AND PUSH20 0xFFFFFFFFFFFFFFFFFFFFFFFFFFFFFFFFFFFFFFFF AND DUP2 MSTORE PUSH1 0x20 ADD SWAP1 DUP2 MSTORE PUSH1 0x20 ADD PUSH1 0x0 KECCAK256 PUSH1 0x0 PUSH2 0x100 EXP DUP2 SLOAD DUP2 PUSH1 0xFF MUL NOT AND SWAP1 DUP4 ISZERO ISZERO MUL OR SWAP1 SSTORE POP POP JUMP JUMPDEST PUSH1 0x0 DUP1 SLOAD SWAP1 PUSH2 0x100 EXP SWAP1 DIV PUSH20 0xFFFFFFFFFFFFFFFFFFFFFFFFFFFFFFFFFFFFFFFF AND DUP2 JUMP JUMPDEST PUSH1 0x2 SLOAD DUP2 JUMP JUMPDEST POP JUMP JUMPDEST PUSH1 0x0 DUP1 REVERT JUMPDEST PUSH1 0x0 DUP2 SWAP1 POP SWAP2 SWAP1 POP JUMP JUMPDEST PUSH2 0x6CA DUP2 PUSH2 0x6B7 JUMP JUMPDEST DUP2 EQ PUSH2 0x6D5 JUMPI PUSH1 0x0 DUP1 REVERT JUMPDEST POP JUMP JUMPDEST PUSH1 0x0 DUP2 CALLDATALOAD SWAP1 POP PUSH2 0x6E7 DUP2 PUSH2 0x6C1 JUMP JUMPDEST SWAP3 SWAP2 POP POP JUMP JUMPDEST PUSH1 0x0 PUSH1 0x20 DUP3 DUP5 SUB SLT ISZERO PUSH2 0x703 JUMPI PUSH2 0x702 PUSH2 0x6B2 JUMP JUMPDEST JUMPDEST PUSH1 0x0 PUSH2 0x711 DUP5 DUP3 DUP6 ADD PUSH2 0x6D8 JUMP JUMPDEST SWAP2 POP POP SWAP3 SWAP2 POP POP JUMP JUMPDEST PUSH1 0x0 PUSH20 0xFFFFFFFFFFFFFFFFFFFFFFFFFFFFFFFFFFFFFFFF DUP3 AND SWAP1 POP SWAP2 SWAP1 POP JUMP JUMPDEST PUSH1 0x0 PUSH2 0x745 DUP3 PUSH2 0x71A JUMP JUMPDEST SWAP1 POP SWAP2 SWAP1 POP JUMP JUMPDEST PUSH2 0x755 DUP2 PUSH2 0x73A JUMP JUMPDEST DUP2 EQ PUSH2 0x760 JUMPI PUSH1 0x0 DUP1 REVERT JUMPDEST POP JUMP JUMPDEST PUSH1 0x0 DUP2 CALLDATALOAD SWAP1 POP PUSH2 0x772 DUP2 PUSH2 0x74C JUMP JUMPDEST SWAP3 SWAP2 POP POP JUMP JUMPDEST PUSH1 0x0 PUSH1 0x20 DUP3 DUP5 SUB SLT ISZERO PUSH2 0x78E JUMPI PUSH2 0x78D PUSH2 0x6B2 JUMP JUMPDEST JUMPDEST PUSH1 0x0 PUSH2 0x79C DUP5 DUP3 DUP6 ADD PUSH2 0x763 JUMP JUMPDEST SWAP2 POP POP SWAP3 SWAP2 POP POP JUMP JUMPDEST PUSH1 0x0 DUP2 ISZERO ISZERO SWAP1 POP SWAP2 SWAP1 POP JUMP JUMPDEST PUSH2 0x7BA DUP2 PUSH2 0x7A5 JUMP JUMPDEST DUP3 MSTORE POP POP JUMP JUMPDEST PUSH1 0x0 PUSH1 0x20 DUP3 ADD SWAP1 POP PUSH2 0x7D5 PUSH1 0x0 DUP4 ADD DUP5 PUSH2 0x7B1 JUMP JUMPDEST SWAP3 SWAP2 POP POP JUMP JUMPDEST PUSH2 0x7E4 DUP2 PUSH2 0x6B7 JUMP JUMPDEST DUP3 MSTORE POP POP JUMP JUMPDEST PUSH1 0x0 PUSH1 0x20 DUP3 ADD SWAP1 POP PUSH2 0x7FF PUSH1 0x0 DUP4 ADD DUP5 PUSH2 0x7DB JUMP JUMPDEST SWAP3 SWAP2 POP POP JUMP JUMPDEST PUSH2 0x80E DUP2 PUSH2 0x73A JUMP JUMPDEST DUP3 MSTORE POP POP JUMP JUMPDEST PUSH1 0x0 PUSH1 0x20 DUP3 ADD SWAP1 POP PUSH2 0x829 PUSH1 0x0 DUP4 ADD DUP5 PUSH2 0x805 JUMP JUMPDEST SWAP3 SWAP2 POP POP JUMP JUMPDEST PUSH1 0x0 DUP3 DUP3 MSTORE PUSH1 0x20 DUP3 ADD SWAP1 POP SWAP3 SWAP2 POP POP JUMP JUMPDEST PUSH32 0x4F6E6C79207472757374656420736F75726365732063616E2063616C6C207468 PUSH1 0x0 DUP3 ADD MSTORE PUSH32 0x69732066756E6374696F6E000000000000000000000000000000000000000000 PUSH1 0x20 DUP3 ADD MSTORE POP JUMP JUMPDEST PUSH1 0x0 PUSH2 0x89C PUSH1 0x2B DUP4 PUSH2 0x82F JUMP JUMPDEST SWAP2 POP PUSH2 0x8A7 DUP3 PUSH2 0x840 JUMP JUMPDEST PUSH1 0x40 DUP3 ADD SWAP1 POP SWAP2 SWAP1 POP JUMP JUMPDEST PUSH1 0x0 PUSH1 0x20 DUP3 ADD SWAP1 POP DUP2 DUP2 SUB PUSH1 0x0 DUP4 ADD MSTORE PUSH2 0x8CB DUP2 PUSH2 0x88F JUMP JUMPDEST SWAP1 POP SWAP2 SWAP1 POP JUMP JUMPDEST PUSH32 0x4F6E6C792061646D696E2063616E2063616C6C20746869732066756E6374696F PUSH1 0x0 DUP3 ADD MSTORE PUSH32 0x6E00000000000000000000000000000000000000000000000000000000000000 PUSH1 0x20 DUP3 ADD MSTORE POP JUMP JUMPDEST PUSH1 0x0 PUSH2 0x92E PUSH1 0x21 DUP4 PUSH2 0x82F JUMP JUMPDEST SWAP2 POP PUSH2 0x939 DUP3 PUSH2 0x8D2 JUMP JUMPDEST PUSH1 0x40 DUP3 ADD SWAP1 POP SWAP2 SWAP1 POP JUMP JUMPDEST PUSH1 0x0 PUSH1 0x20 DUP3 ADD SWAP1 POP DUP2 DUP2 SUB PUSH1 0x0 DUP4 ADD MSTORE PUSH2 0x95D DUP2 PUSH2 0x921 JUMP JUMPDEST SWAP1 POP SWAP2 SWAP1 POP JUMP INVALID LOG2 PUSH5 0x6970667358 0x22 SLT KECCAK256 CALLCODE 0xE SWAP7 CREATE 0xE5 PUSH23 0xFEF227BC057CD024BFBBD58271074644B1EEDD582E8CD0 0x2E 0x4D 0x23 PUSH5 0x736F6C6343 STOP ADDMOD EQ STOP CALLER "},"methodIdentifiers":{"addTrustedSource(address)":"e5782278","admin()":"f851a440","averageEmissionsFactor()":"fcb30e96","getAverageEmissionsFactor()":"8de4126d","removeTrustedSource(address)":"ae3f9c27","trustedSources(address)":"4c31957f","updateAverageEmissionsFactor(uint256)":"3b0dfd67"}}}}}