{
  "_format": "hh-sol-artifact-1",
  "contractName": "MockAverageEmissionsOracle",
  "sourceName": "contracts/MockAverageEmissionsOracle.sol",
  "abi": [
    {
      "inputs": [],
      "stateMutability": "nonpayable",
      "type": "constructor"
    },
    {
      "inputs": [
        {
          "internalType": "address",
          "name": "source",
          "type": "address"
        }
      ],
      "name": "addTrustedSource",
      "outputs": [],
      "stateMutability": "nonpayable",
      "type": "function"
    },
    {
      "inputs": [],
      "name": "admin",
      "outputs": [
        {
          "internalType": "address",
          "name": "",
          "type": "address"
        }
      ],
      "stateMutability": "view",
      "type": "function"
    },
    {
      "inputs": [],
      "name": "averageEmissionsFactor",
      "outputs": [
        {
          "internalType": "uint256",
          "name": "",
          "type": "uint256"
        }
      ],
      "stateMutability": "view",
      "type": "function"
    },
    {
      "inputs": [],
      "name": "getAverageEmissionsFactor",
      "outputs": [
        {
          "internalType": "uint256",
          "name": "",
          "type": "uint256"
        }
      ],
      "stateMutability": "view",
      "type": "function"
    },
    {
      "inputs": [
        {
          "internalType": "address",
          "name": "source",
          "type": "address"
        }
      ],
      "name": "removeTrustedSource",
      "outputs": [],
      "stateMutability": "nonpayable",
      "type": "function"
    },
    {
      "inputs": [
        {
          "internalType": "address",
          "name": "",
          "type": "address"
        }
      ],
      "name": "trustedSources",
      "outputs": [
        {
          "internalType": "bool",
          "name": "",
          "type": "bool"
        }
      ],
      "stateMutability": "view",
      "type": "function"
    },
    {
      "inputs": [
        {
          "internalType": "uint256",
          "name": "emissionsFactor",
          "type": "uint256"
        }
      ],
      "name": "updateAverageEmissionsFactor",
      "outputs": [],
      "stateMutability": "nonpayable",
      "type": "function"
    }
  ],
  "bytecode": "0x608060405234801561001057600080fd5b5061002b670e5b33b0acf5de3b60c01b61008a60201b60201c565b61004567c27a237d3f5e43ff60c01b61008a60201b60201c565b336000806101000a81548173ffffffffffffffffffffffffffffffffffffffff021916908373ffffffffffffffffffffffffffffffffffffffff16021790555061008d565b50565b61099a8061009c6000396000f3fe608060405234801561001057600080fd5b506004361061007d5760003560e01c8063ae3f9c271161005b578063ae3f9c27146100ec578063e578227814610108578063f851a44014610124578063fcb30e96146101425761007d565b80633b0dfd67146100825780634c31957f1461009e5780638de4126d146100ce575b600080fd5b61009c600480360381019061009791906106ed565b610160565b005b6100b860048036038101906100b39190610778565b6102be565b6040516100c591906107c0565b60405180910390f35b6100d66102de565b6040516100e391906107ea565b60405180910390f35b61010660048036038101906101019190610778565b610324565b005b610122600480360381019061011d9190610778565b6104d5565b005b61012c610685565b6040516101399190610814565b60405180910390f35b61014a6106a9565b60405161015791906107ea565b60405180910390f35b610174670d18dd0c9205a83260c01b6106af565b610188679dc1fa8e7160165e60c01b6106af565b61019c6730265cbf692b62c060c01b6106af565b6101b067f4992d9a22ef1a9560c01b6106af565b6101c4677aa676f0fcc8138360c01b6106af565b600160003373ffffffffffffffffffffffffffffffffffffffff1673ffffffffffffffffffffffffffffffffffffffff16815260200190815260200160002060009054906101000a900460ff16610250576040517f08c379a0000000000000000000000000000000000000000000000000000000008152600401610247906108b2565b60405180910390fd5b61026467165b3f48d07449e960c01b6106af565b610278676f29b455e4d8394d60c01b6106af565b61028c67bc49d3e710e597fc60c01b6106af565b6102a067c14cd36dcd3bf6bf60c01b6106af565b6102b467048a8c0f524fbe5660c01b6106af565b8060028190555050565b60016020528060005260406000206000915054906101000a900460ff1681565b60006102f467c26742fdc8d276fa60c01b6106af565b61030867faeecd814587f01a60c01b6106af565b61031c674ecb524a933feab260c01b6106af565b600254905090565b6103386743ff5eda69a2b88260c01b6106af565b61034c6751b3a7ae0bdbee1160c01b6106af565b610360677c21798ab3a2adbb60c01b6106af565b61037467cdda05cb58138a4760c01b6106af565b6103886762e5cbb12da132d260c01b6106af565b60008054906101000a900473ffffffffffffffffffffffffffffffffffffffff1673ffffffffffffffffffffffffffffffffffffffff163373ffffffffffffffffffffffffffffffffffffffff1614610416576040517f08c379a000000000000000000000000000000000000000000000000000000000815260040161040d90610944565b60405180910390fd5b61042a67af91d08d13e7aa3860c01b6106af565b61043e67e9f292c95af6ee7b60c01b6106af565b610452673ba1795e8afbdc3460c01b6106af565b6104666775302f92b68155f760c01b6106af565b61047a672d0cdb21320cf58b60c01b6106af565b6000600160008373ffffffffffffffffffffffffffffffffffffffff1673ffffffffffffffffffffffffffffffffffffffff16815260200190815260200160002060006101000a81548160ff02191690831515021790555050565b6104e9675fca7c0f28011cc960c01b6106af565b6104fd6751b3a7ae0bdbee1160c01b6106af565b610511677c21798ab3a2adbb60c01b6106af565b61052567cdda05cb58138a4760c01b6106af565b6105396762e5cbb12da132d260c01b6106af565b60008054906101000a900473ffffffffffffffffffffffffffffffffffffffff1673ffffffffffffffffffffffffffffffffffffffff163373ffffffffffffffffffffffffffffffffffffffff16146105c7576040517f08c379a00000000000000000000000000000000000000000000000000000000081526004016105be90610944565b60405180910390fd5b6105db67af91d08d13e7aa3860c01b6106af565b6105ef67e9f292c95af6ee7b60c01b6106af565b61060367d83a63fcc6d186bc60c01b6106af565b610617670e89c6f2b0ced58560c01b6106af565b61062b67ca92470016ebb49860c01b6106af565b60018060008373ffffffffffffffffffffffffffffffffffffffff1673ffffffffffffffffffffffffffffffffffffffff16815260200190815260200160002060006101000a81548160ff02191690831515021790555050565b60008054906101000a900473ffffffffffffffffffffffffffffffffffffffff1681565b60025481565b50565b600080fd5b6000819050919050565b6106ca816106b7565b81146106d557600080fd5b50565b6000813590506106e7816106c1565b92915050565b600060208284031215610703576107026106b2565b5b6000610711848285016106d8565b91505092915050565b600073ffffffffffffffffffffffffffffffffffffffff82169050919050565b60006107458261071a565b9050919050565b6107558161073a565b811461076057600080fd5b50565b6000813590506107728161074c565b92915050565b60006020828403121561078e5761078d6106b2565b5b600061079c84828501610763565b91505092915050565b60008115159050919050565b6107ba816107a5565b82525050565b60006020820190506107d560008301846107b1565b92915050565b6107e4816106b7565b82525050565b60006020820190506107ff60008301846107db565b92915050565b61080e8161073a565b82525050565b60006020820190506108296000830184610805565b92915050565b600082825260208201905092915050565b7f4f6e6c79207472757374656420736f75726365732063616e2063616c6c20746860008201527f69732066756e6374696f6e000000000000000000000000000000000000000000602082015250565b600061089c602b8361082f565b91506108a782610840565b604082019050919050565b600060208201905081810360008301526108cb8161088f565b9050919050565b7f4f6e6c792061646d696e2063616e2063616c6c20746869732066756e6374696f60008201527f6e00000000000000000000000000000000000000000000000000000000000000602082015250565b600061092e60218361082f565b9150610939826108d2565b604082019050919050565b6000602082019050818103600083015261095d81610921565b905091905056fea2646970667358221220f20e96f0e576fef227bc057cd024bfbbd58271074644b1eedd582e8cd02e4d2364736f6c63430008140033",
  "linkReferences": {},
  "deployedLinkReferences": {}
}