{
  "_format": "hh-sol-artifact-1",
  "contractName": "MockProjectEmissionsOracle",
  "sourceName": "contracts/MockProjectEmissionsOracle.sol",
  "abi": [
    {
      "inputs": [],
      "stateMutability": "nonpayable",
      "type": "constructor"
    },
    {
      "inputs": [
        {
          "internalType": "address",
          "name": "source",
          "type": "address"
        }
      ],
      "name": "addTrustedSource",
      "outputs": [],
      "stateMutability": "nonpayable",
      "type": "function"
    },
    {
      "inputs": [],
      "name": "admin",
      "outputs": [
        {
          "internalType": "address",
          "name": "",
          "type": "address"
        }
      ],
      "stateMutability": "view",
      "type": "function"
    },
    {
      "inputs": [
        {
          "internalType": "address",
          "name": "",
          "type": "address"
        }
      ],
      "name": "energyProducedData",
      "outputs": [
        {
          "internalType": "uint256",
          "name": "",
          "type": "uint256"
        }
      ],
      "stateMutability": "view",
      "type": "function"
    },
    {
      "inputs": [
        {
          "internalType": "address",
          "name": "project",
          "type": "address"
        }
      ],
      "name": "getEnergyProduced",
      "outputs": [
        {
          "internalType": "uint256",
          "name": "",
          "type": "uint256"
        }
      ],
      "stateMutability": "view",
      "type": "function"
    },
    {
      "inputs": [
        {
          "internalType": "address",
          "name": "project",
          "type": "address"
        }
      ],
      "name": "getProjectEmissionsData",
      "outputs": [
        {
          "internalType": "uint256",
          "name": "",
          "type": "uint256"
        }
      ],
      "stateMutability": "view",
      "type": "function"
    },
    {
      "inputs": [
        {
          "internalType": "address",
          "name": "",
          "type": "address"
        }
      ],
      "name": "projectEmissionsData",
      "outputs": [
        {
          "internalType": "uint256",
          "name": "",
          "type": "uint256"
        }
      ],
      "stateMutability": "view",
      "type": "function"
    },
    {
      "inputs": [
        {
          "internalType": "address",
          "name": "project",
          "type": "address"
        }
      ],
      "name": "registerProject",
      "outputs": [],
      "stateMutability": "nonpayable",
      "type": "function"
    },
    {
      "inputs": [
        {
          "internalType": "address",
          "name": "",
          "type": "address"
        }
      ],
      "name": "registeredProjects",
      "outputs": [
        {
          "internalType": "bool",
          "name": "",
          "type": "bool"
        }
      ],
      "stateMutability": "view",
      "type": "function"
    },
    {
      "inputs": [
        {
          "internalType": "address",
          "name": "source",
          "type": "address"
        }
      ],
      "name": "removeTrustedSource",
      "outputs": [],
      "stateMutability": "nonpayable",
      "type": "function"
    },
    {
      "inputs": [
        {
          "internalType": "address",
          "name": "",
          "type": "address"
        }
      ],
      "name": "trustedSources",
      "outputs": [
        {
          "internalType": "bool",
          "name": "",
          "type": "bool"
        }
      ],
      "stateMutability": "view",
      "type": "function"
    },
    {
      "inputs": [
        {
          "internalType": "address",
          "name": "project",
          "type": "address"
        },
        {
          "internalType": "uint256",
          "name": "energyProduced",
          "type": "uint256"
        },
        {
          "internalType": "uint256",
          "name": "emissions",
          "type": "uint256"
        }
      ],
      "name": "updateProjectData",
      "outputs": [],
      "stateMutability": "nonpayable",
      "type": "function"
    }
  ],
  "bytecode": "0x608060405234801561001057600080fd5b5061002b67f74b6802d28b043c60c01b61008a60201b60201c565b610045671c643c8a35580f6560c01b61008a60201b60201c565b336000806101000a81548173ffffffffffffffffffffffffffffffffffffffff021916908373ffffffffffffffffffffffffffffffffffffffff16021790555061008d565b50565b610fe48061009c6000396000f3fe608060405234801561001057600080fd5b50600436106100a95760003560e01c80639f244021116100715780639f24402114610176578063ae3f9c27146101a6578063c541cfa5146101c2578063e3d45a68146101f2578063e578227814610222578063f851a4401461023e576100a9565b806344e61f62146100ae5780634c31957f146100de578063511fb40f1461010e57806377a774001461012a5780637b61e1d314610146575b600080fd5b6100c860048036038101906100c39190610ccd565b61025c565b6040516100d59190610d13565b60405180910390f35b6100f860048036038101906100f39190610ccd565b6103bd565b6040516101059190610d49565b60405180910390f35b61012860048036038101906101239190610d90565b6103dd565b005b610144600480360381019061013f9190610ccd565b6106ae565b005b610160600480360381019061015b9190610ccd565b610731565b60405161016d9190610d13565b60405180910390f35b610190600480360381019061018b9190610ccd565b610749565b60405161019d9190610d49565b60405180910390f35b6101c060048036038101906101bb9190610ccd565b610769565b005b6101dc60048036038101906101d79190610ccd565b61091a565b6040516101e99190610d13565b60405180910390f35b61020c60048036038101906102079190610ccd565b610932565b6040516102199190610d13565b60405180910390f35b61023c60048036038101906102379190610ccd565b610a93565b005b610246610c43565b6040516102539190610df2565b60405180910390f35b600061027267d55dd58b3a15ffab60c01b610c67565b610286678df8c716c77909c060c01b610c67565b61029a67f2cc1dc254ed577d60c01b610c67565b6102ae67b04ef303408c031d60c01b610c67565b600260008373ffffffffffffffffffffffffffffffffffffffff1673ffffffffffffffffffffffffffffffffffffffff16815260200190815260200160002060009054906101000a900460ff1661033a576040517f08c379a000000000000000000000000000000000000000000000000000000000815260040161033190610e6a565b60405180910390fd5b61034e6760d9237d2785d49260c01b610c67565b61036267493237fce7c3d4d360c01b610c67565b61037667debccd161f41a87660c01b610c67565b600360008373ffffffffffffffffffffffffffffffffffffffff1673ffffffffffffffffffffffffffffffffffffffff168152602001908152602001600020549050919050565b60016020528060005260406000206000915054906101000a900460ff1681565b6103f1671773ccfa52da426c60c01b610c67565b6104056740dfc86fedf1e30a60c01b610c67565b61041967bbdc87be6813f0c260c01b610c67565b61042d679ba39c38c435e84c60c01b610c67565b610441670a09e9ab2faa3ae260c01b610c67565b600160003373ffffffffffffffffffffffffffffffffffffffff1673ffffffffffffffffffffffffffffffffffffffff16815260200190815260200160002060009054906101000a900460ff166104cd576040517f08c379a00000000000000000000000000000000000000000000000000000000081526004016104c490610efc565b60405180910390fd5b6104e167676fd45bd1c2faaf60c01b610c67565b6104f567829238f5618a4a8b60c01b610c67565b610509671615ca39e7e0367760c01b610c67565b61051d677a024657cbfff7c960c01b610c67565b61053167cfcf0e0ff197d93760c01b610c67565b610545679240d55a6679a87f60c01b610c67565b610559678aeb6b9ec5bac5bf60c01b610c67565b600260008473ffffffffffffffffffffffffffffffffffffffff1673ffffffffffffffffffffffffffffffffffffffff16815260200190815260200160002060009054906101000a900460ff166105e5576040517f08c379a00000000000000000000000000000000000000000000000000000000081526004016105dc90610e6a565b60405180910390fd5b6105f967fad782364f3fab5260c01b610c67565b61060d67d587b62251010fe060c01b610c67565b81600360008573ffffffffffffffffffffffffffffffffffffffff1673ffffffffffffffffffffffffffffffffffffffff1681526020019081526020016000208190555061066567f460edb53de3e68160c01b610c67565b80600460008573ffffffffffffffffffffffffffffffffffffffff1673ffffffffffffffffffffffffffffffffffffffff16815260200190815260200160002081905550505050565b6106c2671ee0da49ab947c1e60c01b610c67565b6106d6671dde52635e893eae60c01b610c67565b6001600260008373ffffffffffffffffffffffffffffffffffffffff1673ffffffffffffffffffffffffffffffffffffffff16815260200190815260200160002060006101000a81548160ff02191690831515021790555050565b60046020528060005260406000206000915090505481565b60026020528060005260406000206000915054906101000a900460ff1681565b61077d67ea0e11b7819b4f5460c01b610c67565b61079167c709039289c834d260c01b610c67565b6107a567f712291dea7ecd1160c01b610c67565b6107b9675815e988a88e456760c01b610c67565b6107cd6797c9c53f740380b060c01b610c67565b60008054906101000a900473ffffffffffffffffffffffffffffffffffffffff1673ffffffffffffffffffffffffffffffffffffffff163373ffffffffffffffffffffffffffffffffffffffff161461085b576040517f08c379a000000000000000000000000000000000000000000000000000000000815260040161085290610f8e565b60405180910390fd5b61086f67ce7e3c0390fa9d0b60c01b610c67565b610883679272c89c3764cad060c01b610c67565b610897673cd43240d79e8abf60c01b610c67565b6108ab671eb14b8c170c833260c01b610c67565b6108bf67ce50d7ce760bc2aa60c01b610c67565b6000600160008373ffffffffffffffffffffffffffffffffffffffff1673ffffffffffffffffffffffffffffffffffffffff16815260200190815260200160002060006101000a81548160ff02191690831515021790555050565b60036020528060005260406000206000915090505481565b60006109486725583a58e93f9d6660c01b610c67565b61095c67fcf86b02cb448ea560c01b610c67565b6109706785c9e01ca37e772c60c01b610c67565b61098467b9c7c4259815ed5a60c01b610c67565b600260008373ffffffffffffffffffffffffffffffffffffffff1673ffffffffffffffffffffffffffffffffffffffff16815260200190815260200160002060009054906101000a900460ff16610a10576040517f08c379a0000000000000000000000000000000000000000000000000000000008152600401610a0790610e6a565b60405180910390fd5b610a2467c1df1b1adc4eb35560c01b610c67565b610a3867729fd24c21d7c3e060c01b610c67565b610a4c67d9254c5b7ebd127160c01b610c67565b600460008373ffffffffffffffffffffffffffffffffffffffff1673ffffffffffffffffffffffffffffffffffffffff168152602001908152602001600020549050919050565b610aa767bbb5d2e7d07b679d60c01b610c67565b610abb67c709039289c834d260c01b610c67565b610acf67f712291dea7ecd1160c01b610c67565b610ae3675815e988a88e456760c01b610c67565b610af76797c9c53f740380b060c01b610c67565b60008054906101000a900473ffffffffffffffffffffffffffffffffffffffff1673ffffffffffffffffffffffffffffffffffffffff163373ffffffffffffffffffffffffffffffffffffffff1614610b85576040517f08c379a0000000000000000000000000000000000000000000000000000000008152600401610b7c90610f8e565b60405180910390fd5b610b9967ce7e3c0390fa9d0b60c01b610c67565b610bad679272c89c3764cad060c01b610c67565b610bc167e997194e9e37eba860c01b610c67565b610bd567ceb1775cbc32ca9760c01b610c67565b610be967d12c040cc3aa63ae60c01b610c67565b60018060008373ffffffffffffffffffffffffffffffffffffffff1673ffffffffffffffffffffffffffffffffffffffff16815260200190815260200160002060006101000a81548160ff02191690831515021790555050565b60008054906101000a900473ffffffffffffffffffffffffffffffffffffffff1681565b50565b600080fd5b600073ffffffffffffffffffffffffffffffffffffffff82169050919050565b6000610c9a82610c6f565b9050919050565b610caa81610c8f565b8114610cb557600080fd5b50565b600081359050610cc781610ca1565b92915050565b600060208284031215610ce357610ce2610c6a565b5b6000610cf184828501610cb8565b91505092915050565b6000819050919050565b610d0d81610cfa565b82525050565b6000602082019050610d286000830184610d04565b92915050565b60008115159050919050565b610d4381610d2e565b82525050565b6000602082019050610d5e6000830184610d3a565b92915050565b610d6d81610cfa565b8114610d7857600080fd5b50565b600081359050610d8a81610d64565b92915050565b600080600060608486031215610da957610da8610c6a565b5b6000610db786828701610cb8565b9350506020610dc886828701610d7b565b9250506040610dd986828701610d7b565b9150509250925092565b610dec81610c8f565b82525050565b6000602082019050610e076000830184610de3565b92915050565b600082825260208201905092915050565b7f50726f6a656374206e6f74207265676973746572656400000000000000000000600082015250565b6000610e54601683610e0d565b9150610e5f82610e1e565b602082019050919050565b60006020820190508181036000830152610e8381610e47565b9050919050565b7f4f6e6c79207472757374656420736f75726365732063616e2063616c6c20746860008201527f69732066756e6374696f6e000000000000000000000000000000000000000000602082015250565b6000610ee6602b83610e0d565b9150610ef182610e8a565b604082019050919050565b60006020820190508181036000830152610f1581610ed9565b9050919050565b7f4f6e6c792061646d696e2063616e2063616c6c20746869732066756e6374696f60008201527f6e00000000000000000000000000000000000000000000000000000000000000602082015250565b6000610f78602183610e0d565b9150610f8382610f1c565b604082019050919050565b60006020820190508181036000830152610fa781610f6b565b905091905056fea264697066735822122040c40458a02f508f88e86da37dd25da5dcb664b73057753bab6639c84960cffe64736f6c63430008140033",
  "linkReferences": {},
  "deployedLinkReferences": {}
}